:020000040800F2
:10000000005000200D01000800000000000000006A
:1000100009010008090100080901000800000000AA
:1000200000000000000000000000000009010008BE
:100030000901000800000000090100082D05000862
:100040000901000829050008090100080901000844
:100050000901000809010008090500080D0500084C
:100060001105000815050008190500080901000818
:100070000901000809010008090100080901000838
:100080000901000809010008090100080901000828
:100090000901000809010008090100080901000818
:1000A0000901000809010008090100080901000808
:1000B0001D050008210500082505000809010008A4
:1000C00009010008090100080901000809010008E8
:1000D00009010008090100080901000809010008D8
:1000E00009010008090100080901000800000000DA
:1000F0000000000000000000000000000000000000
:100100000000000000000000FEE700BF684620F08D
:1001100007018D46104A114B01B59A420DD2D043CA
:100120000F4918440B4620F003000430084453F8EC
:10013000041B834242F8041BF9D10B480B494FF0D2
:1001400000028842B8BF40F8042BFADB054B984701
:10015000BDE80140854670470000002014000020E3
:100160003C0B0008710A0008140000201C0000204D
:10017000F0B51B4F87B01B4C384601A94FF40072F5
:1001800003261823184DADF804208DF806608DF86D
:100190000730A847384601A94FF4806204238DF840
:1001A0000660ADF804208DF807304FF4E136A8471B
:1001B000002320460C2502A90C4AADF80C30ADF8FE
:1001C0000E30ADF81030ADF814300296ADF8125084
:1001D0009047A3899BB243F40053A38107B0F0BDBD
:1001E00000080140003801408D0300084904000860
:1001F00010B5094B98470120084C0146A047042040
:100200000121A0474FF480400121A047082001218F
:10021000A047034B984710BDE9020008D10200082F
:1002200071010008234A30B4536803F00C03042B17
:1002300038D0082B25D00BB31F4A134602601D4A45
:100240001E4C51681E4DC1F30311615CCB404360ED
:100250005168C1F30221615C23FA01F181605168A8
:10026000C1F3C221615CCB40C3605268C2F38132EA
:10027000AA5C30BCB3FBF2F3036170470E4B036022
:10028000DDE753685168C3F38343C90303F10203F5
:100290000BD5526892034CBF0A4A0B4A02FB03F388
:1002A0000360CCE7084B0360C9E7084A02FB03F38D
:1002B0000360C4E70010024000127A00040000202E
:1002C00000000020808D5B00001BB70000093D008E
:1002D000044A936919B923EA0000906170471843F2
:1002E000906170470010024010B4254B002483B089
:1002F00001941C68234A44F48034194610461C605B
:1003000003E00368B3F5A06F09D10B6803F4003371
:100310000193136801331360019B002BF1D0184B3C
:1003200019481946026842F0020202605A685A608F
:100330005A685A605A6842F480625A605A6842F4B5
:1003400000425A605A6842F488125A601A6842F0B1
:1003500080721A600B680A4A9B01FBD511465368EC
:1003600023F003035360536843F0020353604B6868
:1003700003F00C03082BFAD103B05DF8044B70476F
:100380000010024014000020002002402DE9F0413E
:10039000CD78EB0648BF8B78098805F00F0E48BF73
:1003A0004EEA030E11F0FF0F21D00668002301274B
:1003B0004FF00F0802E00133082B17D007FA03F2C1
:1003C00002EA01049442F6D19A0008FA02FC26EAF5
:1003D0000C060EFA02F2282D46EA020631D0482D0C
:1003E00003F1010308BF0461082BE7D10660FF2970
:1003F00023D94668002301274FF00F0C02E0013398
:10040000082B19D003F1080207FA02F202EA0104EC
:100410009442F4D19A000CFA02F826EA08060EFA81
:1004200002F2282D46EA020609D0482D03F1010305
:1004300008BF0461082BE5D14660BDE8F081446146
:10044000DDE74461B7E700BF70B504460D46038A97
:10045000CA889BB223F440531343038282898B885A
:10046000088992B24989034322F4B0520B4322F027
:100470000C0213439BB2A381A38AAA899BB223F4E3
:10048000407386B01343A38201A81C4B98471C48B5
:10049000039B0499A289844208BF0B4612B2002A2A
:1004A0002A6803EB8303B4BF5200920003EB83037B
:1004B000B3FBF2F3134EA589A6FB03202DB240092E
:1004C0006422002D00FB12334FEA00100ADB1A01F0
:1004D0003232A6FB0223C3F3431303439BB22381AF
:1004E00006B070BDD9003231A6FB0131C1F3421212
:1004F00042EA00039BB2238106B070BD25020008CA
:10050000003801401F85EB51704700BF704700BFA6
:10051000704700BF704700BF704700BF704700BF03
:10052000704700BF704700BF704700BF054A13788F
:100530000133DBB213701378642B04BF00231370F4
:10054000704700BF180000200A2810B5044606D0E6
:10055000054A13681B06FCD5044B1C6010BD0D201A
:10056000FFF7F2FFF4E700BF003801400438014014
:10057000E8B10378DBB100230B600278E2B130B45C
:10058000A2F13004E2B2092A02D912E0092D10D8F2
:1005900003EB830304EB43030B6010F8012FA2F17C
:1005A0003004E5B2002AF1D1012030BC70470020B0
:1005B0007047002030BC7047012070470FB42DE910
:1005C000F04F89B00DF14808C64E58F8045B287802
:1005D000A0B3252837D108AC04F8180D21466B1CB0
:1005E00005F10A0C5F1B9E4613F8010BA0F1630294
:1005F000012A40F29580782800F09280732800F05C
:100600008F80252800F08C8063451A4601F8010F81
:10061000E8D19EF80100551C642800F08F8015D8A1
:10062000252800F00C816328D1D198F80000B0474C
:10063000287808F10404A0460028CAD109B0BDE812
:10064000F04F04B07047B0470135C0E7732800F0A1
:10065000F8807828BBD1D8F800A09DF80830002792
:10066000CDF800A008F104080197002B00F0FF80EE
:10067000782B00F0FC80BB46B946A3F13102082A72
:100680004AD814F80B3004EB0B01A3F13002092A0D
:1006900000F24F8105A8864600220EF8013B11F8B2
:1006A000013F0BF1010BA3F1300CBCF1090F02F17A
:1006B0000102F2D908AB1A4401A98B4B02F80C9C39
:1006C0000BF1FF3B98470BF1010B08AB5B4413F8B0
:1006D000183C0BB1782BD0D1019B9AFA8AF2009288
:1006E000002B00F0C780DA0740F12C81C3F107032B
:1006F00003EBD37308AA02EB630313F8203C13F057
:100700000F0300F05A81092B40F2758103F1370085
:10071000B0474FF0000955E1302B08BF0127D2E761
:10072000724608AB1F4464284FF0000307F8180C0A
:1007300007F8173C02F101057FF471AF9DF808300E
:100740000022019208F1040AD8F800B0002B00F052
:10075000C480642B00F0C180904617469146A3F1F7
:100760003102082A7ED8E35DE119A3F13002092A9B
:1007700000F2DC8005A8864600220EF8013B11F845
:10078000013F0137A3F1300CBCF1090F02F1010266
:10079000F3D908AB1A4401A9534B02F80C9C013F52
:1007A0009847013708AB3B4413F8183C0BB1642B56
:1007B000D5D10198002800F09080092840F3BC8032
:1007C00009200190062207210A23013903EB830344
:1007D0004C1C4FEA4303F8D19BFBF3F7022803FBC1
:1007E00017B700F0068113460A24013B04EB84048A
:1007F000591C4FEA4404F8D143464FF00109A8467A
:100800001D4610E0012C16D0B9F1000F13D0302096
:1008100005B92020B047354B83FB0423E417C4EB14
:10082000A304002C7FDD97FBF4F3D8B2303004FB37
:100830001377002BE6D0B0474FF00009EBE7B04745
:10084000C5E6D8F8004008F10408002C3FF4BFAE1C
:10085000207800283FF4BBAEB04714F8010F002801
:10086000FAD1B4E6302B08BF4FF0010899E79AFAA5
:100870008AF30093E94619F8013B012203F00F04C3
:100880001B094FF0000719D0092B88BF03F137006F
:1008900040F2B780B0470023B4B9032F00F0B48012
:1008A0000122002B00F0B0800137042F3FF48FAEFF
:1008B00019F8013B03F00F041B09E5D1002A00F0F1
:1008C000A0800123002CE8D0092C88BF04F1370058
:1008D00040F29A80B0470022E6E70A270122044C42
:1008E00013E000BF490500087105000867666666E9
:1008F00000CA9A3BB0470022454B013F83FB0413DB
:100900004FEAE474C4EBA3040ED09BFBF4F3D8B21B
:10091000303004FB13BB002BECD1012CEAD0002AB1
:10092000E8D00122E8E74546D04650E6002205A877
:100930002FE7002205A8BDE60128A0F102014AD058
:10094000C21E41E74FF00109C3F1080303EBD37363
:100950004FEA630ABAF1030F3FF739AEAB46EA44F8
:1009600001AC1AF8013B03F00F051B0909D0092B54
:1009700088BF03F1370041D9B0477DB905F1300098
:1009800010E0B9F1000F39D087B13020B0472DB950
:100990003020B047A245E4D15D4618E6092DEDD9D7
:1009A00005F13700B0474FF00009F3E72020B047CA
:1009B000002DF3D12020B047ECE73FB13020B04705
:1009C0004FF00109019B013B0193BDE72020B04797
:1009D0004FF00109F6E70E4B83FB0B374FEAEB7341
:1009E000C3EBA70707EB8703ABEB43076FF00103EC
:1009F000FAE60A2400E703F1300089E603F130004B
:100A0000BAE703F1300045E704F1300062E700BFC8
:100A10006766666610B50D4B86B00D4C19680D48BB
:100A2000A0470D4B01A8984701990C48A04702998F
:100A30000B48A04703990B48A04704990A48A047D0
:100A40000A480599A04706B010BD00BF1400002059
:100A5000BD050008A40A000825020008BC0A000819
:100A6000D40A0008EC0A0008040B00081C0B00085C
:100A700000B5074B87B0984701A8064B9847064B2F
:100A800098470648064B9847002007B05DF804FBDE
:100A9000F101000825020008150A0008340B0008BF
:100AA000BD05000853746172745570436F756E74A0
:100AB0006572203A2025640A000000005359534310
:100AC0004C4B5F4672657175656E6379203D2025DC
:100AD000640A000048434C4B5F4672657175656E51
:100AE0006379203D2025640A0000000050434C4BF0
:100AF000315F4672657175656E6379203D202564AE
:100B00000A00000050434C4B325F467265717565B8
:100B10006E6379203D2025640A0000004144434370
:100B20004C4B5F4672657175656E6379203D20257B
:0C0B3000640A000074657374696E67004D
:100B3C000204060800000000010203040102030481
:040B4C000607080987
:040000050800010DE1
:00000001FF
